:020000040800F2
:10000000D86E002061020008855B0008CF5100080F
:10001000815B0008550B00084990000800000000B3
:10002000000000000000000000000000A101000826
:100030007F0D000800000000FD0100082D60000891
:100040007B0200087B0200087B0200087B0200089C
:100050007B0200087B020008810D00087B0200087B
:100060007B0200088B0D0008950D00087B0200083C
:100070005D0C00087B0200087B0200087B02000880
:100080007B0200087B0200087B0200087B0200085C
:10009000590B00087B0200087B0200089F0D000836
:1000A0007B0200087B0200087B0200087B0200083C
:1000B0007B0200087B0200087B0200087B0200082C
:1000C0007B0200087B0200087B0200087B0200081C
:1000D0007B020008E96700087B0200087B02000839
:1000E0007B0200087B0200087B0200087B020008FC
:1000F0007B0200087B0200087B0200087B020008EC
:100100007B0200087B0200087B0200087B020008DB
:100110007B0200087B0200087B0200082D610008BA
:100120007B020008610C00087B020008710C0008CB
:100130007B0200087B0200087B0200087B020008AB
:10014000690B00087B0200087B020008895B00083D
:10015000810C00087B020008910C0008256800084B
:100160007B0200087B0200087B0200087B0200087B
:100170007B0200087B0200087B02000800000000F0
:100180007B0200087B020008DFF810D000F0F4FBCF
:1001900000F054F90048004799B00008D86E0020DC
:1001A0002C4B19680868B0E8F04F80F30988BFF35A
:1001B0006F8F4FF0000080F311887047000000003F
:1001C00008480068006880F308884FF0000080F35A
:1001D000148862B661B6BFF34F8FBFF36F8F00DF35
:1001E00000BF00BF08ED00E0DFF80C00016841F43B
:1001F00070010160704700BF88ED00E0EFF30980F7
:10020000BFF36F8F134B1A681EF0100F08BF20ED5D
:10021000108A20E9F04F106009B44FF0500080F3CD
:100220001188BFF34F8FBFF36F8F0BF0E3FD4FF0DB
:10023000000080F3118809BC19680868B0E8F04F25
:100240001EF0100F08BFB0EC108A80F30988BFF3CE
:100250006F8F704794000020EFF305807047000017
:100260000648804706480047FEE7FEE7FEE7FEE750
:10027000FEE7FEE7FEE7FEE7FEE7FEE7196100089E
:10028000890100089FED1A1AF5EE000A40EE010AF6
:10029000BDEEE00AF5EEC00A10EE100AF1EE10FA1B
:1002A00038BF401E00EE100A1349F7EE001AB8EEF0
:1002B000C00A30EEC00ADFED0F0A20EE200AFCEE85
:1002C000C00A10EE900AC0F3080000EE900A01EB9D
:1002D0008000F8EE600A90ED011A70EE600A90ED71
:1002E000000A71EEE01A21EE800A00EE810A7047E2
:1002F00083F9223E0000004400C40008B5EEC00AA5
:10030000F1EE10FA07D2DFED1E0AB4EEE00AF1EECC
:1003100010FAA8BF7047DFED1B0AB5EEC00A60EE09
:10032000200ABDEEE01A11EE100AF1EE10FA38BF05
:10033000401E00EE100A1549F7EE001AB8EEC00A8A
:1003400030EEC00ADFED100A60EE200ABCEEE00AD3
:1003500010EE100AC0F3080000EE100A01EB800056
:10036000B8EE400A90ED011A70EEC00A90ED000A56
:1003700071EEE01A21EE800A00EE810A704700005B
:10038000CD024CB483F9223E0000004400C40008B2
:100390002DE9F05F0546002092469B4688460646BA
:1003A000814640241BE0284641464746224600F04D
:1003B00033FA53465A46C01A914110D31146184693
:1003C000224600F01AFA2D1A67EB01084F46224622
:1003D0000120002100F011FA17EB00094E41201E08
:1003E000A4F10104DFDC484631462A464346BDE815
:1003F000F09F40EA01039B0703D009E008C9121FE0
:1004000008C0042AFAD203E011F8013B00F8013BCE
:10041000521EF9D27047D2B201E000F8012B491EFA
:10042000FBD270470022F6E710B513460A46044691
:100430001946FFF7F0FF204610BD000070B5054CCF
:10044000054D03E0206820448047241DAC42F9D1CB
:1004500070BD000078CC00087CCC00082DE9FE4F70
:10046000804681EA0300C00F0C46009021F0004155
:1004700023F00045B8EB0200A94105D240462146D1
:1004800090461C460B46024623F00040104347D0DE
:10049000270DC7F30A00C3F30A510290401A0190D6
:1004A00040286BDAC3F3130040F4801B0098924697
:1004B00020B10023D2EB030A63EB0B0B01985946E2
:1004C000C0F14002504600F098F906460D465046ED
:1004D0005946019A00F0B0F910EB08006141002480
:1004E00087EA115284EAE7731A4340D0009A62B354
:1004F000019A012A4FEA075215DC001B61EB020149
:100500004FF0004202EA0752CDE90042001C41F5DB
:10051000801132462B4600F0B0F903B0BDE8F08FF1
:1005200040462146F9E7001B61EB0201001C41F542
:10053000801300185B412018A2F5001747EB030158
:1005400040EAD570B6196D4111E06D084FEA3606E4
:1005500045EAC0754FEA0752001B61EB0201001C1F
:1005600041F5801149084FEA3000001951413246E7
:100570002B4603B0BDE8F04F00F070B9009801229F
:1005800040000023D0EB020263EBE07300982146A9
:100590004FEAE074B8EB000061EB0401E9E783F097
:1005A00000435BE781F0004158E72DE9FE4F81EA07
:1005B000030404F0004421F0004100944FF0000BCC
:1005C00023F0004350EA01045ED052EA03045BD0FA
:1005D000C3F30A54C1F30A552C44A4F2F334019432
:1005E000A0FB0254C1F3130141F48011C3F31303C0
:1005F00043F4801301FB024400FB034E840A970A74
:1006000044EA815447EA8357A4FB076802958D0AA0
:1006100005FB07854FEA932C04FB0C542705029D2C
:100620004FEA065847EA1637B5EB08056EEB070C9C
:10063000870E920E47EA811742EA8312A7FB020156
:10064000B6EB0B0164EB00042B0D43EA0C335E1890
:1006500044EB1C50DA465146E7FB0201C5F3130494
:100660004FEA0B3343EA14534FEA0432019C43EA46
:100670000603A4F10C040294009CCDE900B400F040
:10068000FCF803B0BDE8F08F00200146F9E72DE942
:10069000F04D81EA030404F0004B21F000451446BC
:1006A0004FF0000A23F0004150EA050220D054EA3E
:1006B00001021DD0C5F30A570246C5F31303C1F367
:1006C0001300C1F30A5640F4801543F48013A7EBDE
:1006D0000608101BD64608F2FD3873EB050002D35E
:1006E00008F1010801E092185B41B8F1000F03DA4C
:1006F00000200146BDE8F08D00204FF48011064631
:1007000084460EE0171B73EB050705D3121B63EB42
:10071000050306434CEA010C49084FEA30009218E1
:100720005B4150EA0107EDD152EA030012D082EAA0
:10073000040083EA0501084305D0101BAB4106D233
:100740000122002306E000224FF0004302E06FF098
:10075000010253101AEB06004CEB085110EB0A0093
:1007600041EB0B01BDE8F04D00F078B80EB5C10FBC
:1007700080EAE0700844CA07002140F233438DE864
:100780000E000A460B4600F078F803B000BD0EB527
:1007900040F2334102910021CDE900110A460B4697
:1007A00000F06BF803B000BD00F0004230F00040F4
:1007B0000AD0C10D01F56071C0F3160042EA015183
:1007C000C20840071143704700200146704730B50A
:1007D0000B46014600202022012409E021FA02F5FF
:1007E0009D4205D303FA02F5491B04FA02F5284499
:1007F000151EA2F10102F1DC30BD202A04DB203AF3
:1008000000FA02F1002070479140C2F1200320FA63
:1008100003F3194390407047202A04DB203A21FA61
:1008200002F00021704721FA02F3D040C2F1200209
:100830009140084319467047202A06DBCB17203A1F
:1008400041FA02F043EAE07306E041FA02F3D040D5
:10085000C2F12002914008431946704710B5141E9A
:1008600073F1000408DA401C41F1000192185B4169
:100870001A4301D120F0010010BD2DE9F04D924640
:100880009B4611B1B1FA81F202E0B0FA80F2203257
:100890009046FFF7B2FF04460F4640EA0A0041EADD
:1008A0000B0153465A46084313D0114653EA010040
:1008B00019D0C8F140025046FFF7AEFF05460E467C
:1008C000504659464246FFF798FF084305D001209D
:1008D00004E020463946BDE8F08D0020054346EA95
:1008E000E0762C4337430A986305E40AA0EB08003E
:1008F0000022FD0A44EA47540A3002D5002001468E
:10090000E9E7010510196941DDE908450019694168
:10091000BDE8F04DA2E7C1F30A52C1F3130140F262
:10092000FF3341F480119A4202DA002001467047F9
:1009300040F233439A42A2F2334202DC5242FFF7C2
:100940006BBFFFF75ABF000030B5041E71F1000401
:1009500004DB4FF00044404264EB0101141E73F1CC
:10096000000405DB1C464FF00043524263EB0403D6
:10097000994208BF904230BD064C074D06E0E06842
:1009800040F0010394E8070098471034AC42F6D3D6
:10099000FFF7FEFB58CC000878CC000870B58C1827
:1009A00010F8015B15F0070301D110F8013B2A1183
:1009B00006D110F8012B03E010F8016B01F8016B70
:1009C0005B1EF9D12B0705D40023521E0DD401F86C
:1009D000013BFAE710F8013BCB1A921C03E013F835
:1009E000015B01F8015B521EF9D5A142D8D300206A
:1009F00070BD000055494A6822F440324A604A6896
:100A000043681A434A600268526822F4807203689D
:100A10005A6002685368026943EA022203685A6016
:100A20000268526822F0407203685A600268526895
:100A300083681A4303685A600268926822F400626D
:100A400003689A6002689268C3681A4303689A60F0
:100A50003F4B826A9A4218D00268926822F0706214
:100A600003689A6002689268836A1A4303689A600E
:100A70000268926822F0405203689A6002689268A5
:100A8000C36A1A4303689A600BE00268926822F016
:100A9000706203689A600268926822F040520368AC
:100AA0009A600268926822F0020203689A60026803
:100AB0009368027E43EA420203689A602022125C35
:100AC000A2B10268526842F4006203685A60026888
:100AD000526822F4604203685A6002685368426AAE
:100AE000521E43EA423203685A6005E002685268C7
:100AF00022F4006203685A600268D26A22F470022B
:100B00000368DA620268D36A828B521E43EA025299
:100B10000368DA620268926822F4007203689A60DD
:100B20000268936890F8302043EA422203689A6092
:100B30000268926822F4806203689A60026893688F
:100B4000426943EA822203689A60704700230140A9
:100B50000100000F00BFFEE710B5024800F047FE9D
:100B600010BD00009804002010B5024800F03FFEC0
:100B700010BD0000C0040020F8B507460C4615461D
:100B80001E464FF400700D49086000208860C86060
:100B900008200861380A0A4908704F70200A8870D6
:100BA000CC70280A08714D71300A8871CE716B467D
:100BB0000A460249034800F018FCF8BD846600208C
:100BC0009C010020980400200346042B15D007DC6C
:100BD0007BB1012B0ED0022B0DD0032B12D10BE0D9
:100BE000202B0BD0212B0AD0222B09D0232B09D16B
:100BF00007E008E007E006E005E004E003E002E0CB
:100C000001E000E000BF00BF0020704700207047F7
:100C100010B500220449054806F0A5F80449034828
:100C200006F092F8002010BD14170020380A0020AA
:100C3000140F002070B504460D462146034806F007
:100C400083F8024806F04CF8002070BD380A0020F6
:100C500010B503460C460021084610BD7047000041
:100C600010B5024801F0CAF910BD0000900900203B
:100C700010B5024801F0C2F910BD0000C006002006
:100C800010B5024801F0BAF910BD0000D0080020EC
:100C900010B5024801F0B2F910BD00003009002083
:100CA0000146087810381823B0FBF3F20848805C3E
:100CB000C865032A05D908686FF30900001D886517
:100CC00003E008686FF309008865886D70470000CD
:100CD000E0C30008014600208A6A8B69CBB932B1B3
:100CE000012A0DD0022A03D0032A10D10EE000BF42
:100CF000CB6A03F08073B3F1807F00D1012007E05D
:100D0000CB6AB3F1C07F00D1012001E000E000BF59
:100D100034E08B69B3F5005F1AD132B1012A07D0F4
:100D2000022A03D0032A11D10AE000BF01200EE0FD
:100D3000CB6A03F08073B3F1807F00D1012006E01D
:100D4000CB6AB3F1C07F00D1012000E000BF15E005
:100D500032B1012A05D0022A04D0032A0CD103E0C3
:100D600000BF00BF012008E0CB6A03F08073B3F13D
:100D7000807F00D1012000E000BF00BF70477047B6
:100D800010B5012001F0E6FA10BD10B5082001F001
:100D9000E1FA10BD10B5102001F0DCFA10BD10B55D
:100DA000202001F0D7FA10BD72B600BFFEE70000A8
:100DB00000B52DED060B2DED108B8DB0B0EE41AAD8
:100DC000F0EE61AA9FEDC40AB0EE40BA9FEDC20AF0
:100DD000B0EE408A9DED1D0AFFF754FA8DED040A2E
:100DE0009DED1D0AFFF78AFA8DED020A9DED1E0AA0
:100DF000FFF748FA8DED030A9DED1E0AFFF77EFA14
:100E00008DED010A9DED040ADFEDB40A9FEDB41AE1
:100E100041EE000AF0EE60BA9DED030ADFEDB10A83
:100E20009FEDAF1A41EE000AB0EE60CA9DED020AD6
:100E3000DFEDAB0A20EE200AF0EE408A9DED010ABC
:100E4000DFEDA70A20EE200AB0EE409A7CEE6B0A96
:100E500060EEA00A39EE681A79EE681A41EE210AAE
:100E6000B0EE600A08F03DFA8DED0C0A3CEE6B0A1C
:100E7000DFED9D0A20EE200A8DED0B0A39EE680A9F
:100E8000DFED990A20EE200AB0EE40DA9DED0C0A63
:100E9000DFED960A40EE000A9FED940A30EEC00A9C
:100EA000F0EE40DADDED0B0A60EEA00A4DEE0D0A21
:100EB0004DEEED0AB0EE600A08F013FA70EE0D0A7E
:100EC0009DED0B0A30EE2D0A80EE801AF0EE41FA0D
:100ED000B0EE6F0A08F0F9F9F0EE000A20EE200AF1
:100EE000B0EE40EAB0EE4E0AFFF7CCF99FED801A63
:100EF000F0EE6B0A40EE010AF0EE60CAB0EE4E0A68
:100F0000FFF7FCF99FED7A1AF0EE680A40EE010A4D
:100F1000F0EE609A6CEEAC0A49EEA90AB0EE600AF7
:100F200008F0DFF9B0EE40BA89EEAC0AF0EE40FA14
:100F300008F0CBF9B0EE408AB1EE4A0ADFED680A5C
:100F400060EE200A9DED020A20EE800AB0EE40FA23
:100F50009FED630A6AEE000A9DED040A20EE800A06
:100F60008DED080AB1EE6A0ADFED5D0A60EE200A37
:100F70009DED010A20EE800A8DED090A9FED580AC9
:100F80006AEE800A9DED030A20EE800A8DED070AC5
:100F900039EEC90A7CEECC0A80EE201AF0EE41FA56
:100FA000B0EE6F0A08F091F9F0EE40EAB0EE6E0A8A
:100FB000FFF768F9F0EE400A9DED090A30EE4F0A9E
:100FC00060EE80FAB0EE6E0AFFF798F9DDED070AE1
:100FD0009DED081A70EEC10A40EE80FA7EEECE0A50
:100FE000B0EE600AFFF78AF9DFED410A20EE200A31
:100FF000CFEE800ACDED0A0AB0EE4E0AFFF77EF979
:10100000DDED0A0A9FED3A1A20EE811AF0EE4F0A42
:1010100041EE400ACDED060AB0EE4E0AFFF732F976
:10102000F0EE400A9DED0A0A9FED311A20EE011AFA
:101030009DED080A01EE200A8DED050AB0EE480A82
:10104000F0EEC00AF0EE60FAB0EE6F0AFFF756F964
:10105000F1EE400A9DED060A60EE80FAB0EE480A15
:10106000FFF710F9DDED050A40EE60FAB0EE080A70
:101070002FEE800A8DED000AB5EEC08AF1EE10FA6F
:1010800005D29FED1C0A38EE000AB0EE408A1A48DD
:1010900080ED6CBA80ED6D8A9DED000A80ED710ADD
:1010A00080ED50EAC0ED51EAB0EE480A08F001F9CF
:1010B00020EE0B0A104880ED6F0AB0EE480A08F0E7
:1010C000ECF820EE0B0A0C4880ED6E0A0DB0BDEC7A
:1010D000108B06B000BD000000000000000004C23C
:1010E0000000F042000004420000824300088446F1
:1010F00000000243DA0F4940A866002010B52C44D6
:1011000054B108220549204604F063F8042203493B
:101110001031304604F05DF810BD0000560000208C
:1011200038B502460020009000BF92F83C0001282C
:1011300001D1022038BD012082F83C0000BF0868C0
:10114000092816D91068C0680C780A3C04EB4405DD
:101150000724AC40A0431468E0600C780A3C04EB20
:1011600044048868A0401468E46820431468E06080
:1011700013E0106800690C7804EB44050724AC40C8
:10118000A043146820610C7804EB44048868A040F4
:10119000146824692043146820614868072817D21E
:1011A0001068406B0C79641E04EB84051F24AC406E
:1011B000A04314686063088880B20C79641E04EB55
:1011C0008404A0401468646B20431468606331E0B9
:1011D00048680D2817D21068006B0C79E41F04EBE7
:1011E00084051F24AC40A04314682063088880B2A3
:1011F0000C79E41F04EB8404A0401468246B2043A2
:101200001468206316E01068C06A0C790D3C04EB8A
:1012100084051F24AC40A0431468E062088880B2B3
:101220000C790D3C04EB8404A0401468E46A20436C
:101230001468E062194B1A4C1068A04206D1086885
:10124000122803D1586840F480005860144C10688C
:10125000A0421CD10868102802D00868112816D1B5
:10126000586840F400005860086810280FD10D48F5
:1012700000680D4CB0FBF4F000EB800040000090E3
:1012800002E00098401E009000980028F9D100BFAD
:10129000002082F83C0000BF00BF4BE70023014064
:1012A000002001409000002040420F0070B504462D
:1012B00000250CB9012070BD1549A06A884200D0F4
:1012C00000BF206C30B9204600F024F80020606494
:1012D00084F83C00206C00F0100088B9206C20F4E9
:1012E000885040F0020020642046FFF783FB002076
:1012F0006064206C20F0020040F00100206400E0F7
:10130000012500BF002084F83C0000BF2846D2E73A
:101310000100000F10B586B00446142101A8FFF7A4
:1013200081F82349206888420FD100BF0020009037
:101330002048006840F480701E4908600846006834
:1013400000F48070009000BF2FE01B4920688842A5
:101350002BD100BF002000901648006840F4806048
:10136000144908600846006800F48060009000BFDF
:1013700000BF00BF002000900E481438006840F005
:1013800020000C49143908600846006800F020006D
:10139000009000BF00BF08150190032002900020BC
:1013A000039001A9054800F0E3FF06B010BD00005E
:1013B0000020014044380240002201400014024055
:1013C00010B5024692F82030012B01D0022B06D135
:1013D00010684069084314686061002010BD506ABD
:1013E00040F4802050620120F8E7F0B504460D4635
:1013F0001E4694F8207020688368A86800B900E051
:1014000000BF012F01D0022F7DD103F0806030B9E1
:1014100003F0006018B903F0805000287ED0C3F3B9
:101420000161012088403060A86860B9B5F800C04B
:10143000E86840EA4C5C206800F5C07000EB0110E1
:10144000C0F800C00FE0D5E901C040EACC00D5F8F3
:101450000CC040EA0C00D4F800C00CF5C07C0CEBCA
:10146000011CCCF80000D5F810C0206800F5C07051
:1014700000EB0110C0F804C0287D01280ED12068BF
:1014800000F5C07000EB0110406840F4807C2068DB
:1014900000F5C07000EB0110C0F804C0D079000660
:1014A00092F806C040EA0C4092F805C040EA0C20D1
:1014B00092F804C040EA0C00D4F800C00CF5C07CDF
:1014C0000CEB011CCCF80C00D078000692F802C09E
:1014D00040EA0C4092F801C040EA0C2092F800C0AB
:1014E00040EA0C00D4F800C00CF5C07C0CEB011CE9
:1014F000CCF80800206800F5C07000EB011000680F
:1015000040F0010C01E00FE008E0206800F5C07039
:1015100000EB0110C0F800C00020F0BD606A40F48C
:10152000001060620120F8E7606A40F48020606289
:101530000120F2E7F0B504460A46216894F82050ED
:10154000012D01D0022D7ED1424901F500710868BC
:1015500040F001000860086820F47C5008600868CA
:10156000566A40EA06200860107D00F01F06012040
:1015700000FA06F3C8699843C861A1F50071D06903
:10158000C8B9D1F80C029843C1F80C02908880B217
:10159000968940EA064601F51070576940F83760B1
:1015A000108880B2168940EA064601F51070576926
:1015B00000EBC7004660D069012819D1D1F80C02B0
:1015C0001843C1F80C02908880B2168840EA06469B
:1015D00001F51070576940F83760908980B216891C
:1015E00040EA064601F51070576900EBC7004660F7
:1015F000906928B9D1F804029843C1F8040204E0C4
:10160000D1F804021843C1F80402106928B9D1F8CE
:1016100014029843C1F8140204E0D1F814021843EC
:10162000C1F81402106A012804D1D1F81C02184331
:10163000C1F81C02D1F8000220F00100C1F800023C
:101640000020F0BDFFE7606A40F480206062012066
:10165000F7E7000000640040704770B5044694F856
:101660002050012D01D0022D7DD151B92068C068D4
:1016700000F0030080B9606A40F40010606201204D
:1016800070BD2068006900F0030028B9606A40F46A
:10169000001060620120F3E7206800F5D87000EBCD
:1016A0000110006800F004009060906840B9206864
:1016B00000F5D87000EB01100068400D106007E0E5
:1016C000206800F5D87000EB01100068C008506079
:1016D000206800F5D87000EB0110006800F00200EF
:1016E000D060206800F5D87000EB0110406800F071
:1016F0000F00082802D30820106108E0206800F5D8
:10170000D87000EB0110406800F00F0010612068F5
:1017100000F5D87000EB0110406800F47F40000A2B
:101720009061206800F5D87000EB01104068000C53
:101730005061206800F5D87000EB011080681870C7
:10174000206800F5D87000EB0110806800F47F403D
:10175000000A5870206800F5D87000EB011080680E
:1017600000F47F0000E03CE0000C9870206800F579
:10177000D87000EB01108068000ED870206800F56A
:10178000D87000EB0110C0681871206800F5D8709F
:1017900000EB0110C06800F47F40000A5871206817
:1017A00000F5D87000EB0110C06800F47F00000C59
:1017B0009871206800F5D87000EB0110C068000E29
:1017C000D87131B92068C06840F020002668F06008
:1017D00005E02068006940F02000266830610020A4
:1017E0004EE7606A40F480206062012048E72DE9FE
:1017F000F05F04460025206846692068D0F8049010
:10180000206887682068D0F80CA02068D0F810B055
:101810002068D0F8188006F00100002855D007F0A5
:101820000100C0B101202168886007F0020018B1F2
:10183000204600F0DCFB0EE007F0040010B145F498
:10184000006508E007F0080010B145F4805502E09B
:10185000204600F0CBFB07F48070C8B14FF48070D5
:101860002168886007F4007018B1204600F0C1FBC1
:101870000EE007F4806010B145F4005508E007F46D
:10188000006010B145F4804502E0204600F0B0FB56
:1018900007F48030C8B14FF480302168886007F4C5
:1018A000003018B1204600F0A6FB0EE007F48020BF
:1018B00010B145F4004508E007F4002010B145F4EC
:1018C000803502E0204600F095FB06F0080038B1B4
:1018D0000AF0100020B145F4007510202168C8609E
:1018E00006F0040040B10AF0080028B10820216881
:1018F000C860204600F00CFA06F0020038B12068FB
:10190000C06800F0030010B1204600F003FA06F0B2
:10191000400038B10BF0100020B145F48065102074
:101920002168086106F0200040B10BF0080028B1E2
:10193000082021680861204600F026FB06F0100010
:1019400038B12068006900F0030010B1204600F0B3
:101950001CFB06F4003040B109F0100028B1102043
:1019600021684860204600F011FB06F4803040B149
:1019700009F0080028B1082021684860204600F0DE
:101980003BFB06F4004088B309F0040078B306F48A
:10199000807020B108F0010008B145F0010506F49F
:1019A000007020B108F0020008B145F0020506F40D
:1019B000806020B108F0040008B145F0040506F489
:1019C0000060A0B108F0700088B108F070004028F5
:1019D00017D006DC10280BD020280CD0302819D1C5
:1019E0000CE0502810D0602814D110E01DE019E060
:1019F00045F008050FE045F010050CE045F0200526
:101A000009E045F0400506E045F0800503E045F4B7
:101A1000807500E000BF00BF2068806920F0700082
:101A2000216888610420216848602DB1606A2843DC
:101A300060622046FFF710FEBDE8F09F70B50446D7
:101A40000CB9012070BD94F8200010B9204600F0B8
:101A5000AFF82068006840F001002168086000F0DD
:101A60008FFD05460DE000F08BFD401B0A2808D9CC
:101A7000606A40F400306062052084F82000012094
:101A8000E0E72068406800F001000028EBD0206803
:101A9000006820F002002168086000F071FD054632
:101AA0000DE000F06DFD401B0A2808D9606A40F483
:101AB00000306062052084F820000120C2E7206821
:101AC000406800F002000028EBD1207E012806D1FA
:101AD0002068006840F080002168086005E0206808
:101AE000006820F0800021680860607E012806D12F
:101AF0002068006840F040002168086005E0206828
:101B0000006820F0400021680860A07E012806D10E
:101B10002068006840F020002168086005E0206827
:101B2000006820F0200021680860E07E012806D1CE
:101B30002068006820F010002168086005E0206837
:101B4000006840F0100021680860207F012806D15D
:101B50002068006840F008002168086005E02068FF
:101B6000006820F0080021680860607F012806D125
:101B70002068006840F004002168086005E02068E3
:101B8000006820F0040021680860D4E902010843DD
:101B900021690843616908436168491E0843216857
:101BA000C86100206062012084F82000002049E71D
:101BB00010B586B00446142101A8FEF733FC4E4947
:101BC0002068884241D14D480068401C4B4908605C
:101BD0000846006801280FD100BF00200090484847
:101BE000006840F00070464908600846006800F050
:101BF0000070009000BF00BF00BF00200090404870
:101C00001038006840F008003D4910390860084667
:101C1000006800F00800009000BF00BF03200190A2
:101C200002200290002003900320049009200590D8
:101C300001A9344800F09CFB00220621142000F08A
:101C4000EBFE142000F0D4FE54E02F4920688842B7
:101C500050D100BF002000902948006840F080600B
:101C6000274908600846006800F08060009000BFC7
:101C700000BF22480068401C2049086008460068F0
:101C800001280FD100BF002000901D48006840F0DF
:101C900000701B4908600846006800F00070009062
:101CA00000BF00BF00BF002000901548103800683A
:101CB00040F002001249103908600846006800F040
:101CC0000200009000BF00BF60200190022002903F
:101CD00000200390032004900920059001A90B48DF
:101CE00000F046FB00220521402000F095FE402038
:101CF00000F07EFE06B010BD006400401C00002015
:101D000040380240000C02400068004000040240DD
:101D10007047000010B588B0044696492068884294
:101D20007ED1954B01AA00212046FFF796FC019831
:101D3000A0F20120072874D2DFE800F004050607AE
:101D400008090A0000BF00BF00BF00BF00BF00BFFE
:101D50000198401E894908700846007800EB400051
:101D6000874931F820008549097801EB4101844A0F
:101D700002EB81010881804840787F49097840EA78
:101D800001207E49097801EB410122F821007A48BF
:101D9000C0787949897840EA012000B2774909780A
:101DA00001EB410102EB810148807348407972499F
:101DB000097940EA012000B27049097801EB41013C
:101DC00002EB810188806C4880796C49097801EBCD
:101DD000410102EB810188716849097801EB4101F9
:101DE00032F82110654A127802EB4202644B03EB91
:101DF00082021289881A002801DB014600E0414274
:101E0000B1F5805F51DD5D48007800EB40005C4932
:101E100031F8200041F6641188421FDB574801E089
:101E200045E043E0007800EB4000554901EB8000BD
:101E30000089B0F57A7F11DC5048007800EB400053
:101E400001EB80004089401C00B24C49097801EB4D
:101E500041014B4A02EB8101488126E04748007866
:101E600000EB4000464931F82000B0F57A7F1CDCD9
:101E70004248007800EB400001EB8000008941F609
:101E80006411884211DB3D48007800EB40003C497A
:101E900001EB80004089401E00B23849097801EB0F
:101EA0004101374A02EB8101488100BF00BF35493B
:101EB000206888425CD1304B01AA00212046FFF700
:101EC000CCFB0198A0F20520002850D12C480088B6
:101ED0002B490881284840782749097840EA0120A1
:101EE000274908802448C0782349897840EA01209E
:101EF00000B223494880204840791F49097940EAC7
:101F0000012000B21E4988801B48807988710988A9
:101F10001B4A1289881A002801DB014600E0414271
:101F2000B1F5805F22DD1648008841F664118842D1
:101F30000BDB13480089B0F57A7F06DC1048408936
:101F4000401C00B20E49488110E00D480088B0F5F1
:101F50007A7F0BDC0A48008941F66411884205DB70
:101F600007484089401E00B20549488100BF00BFB4
:101F700008B010BD006400409C660020AC01002049
:101F8000186600200068004070477047704770B5C1
:101F9000044694F82000012822D1022084F8200071
:101FA0002068006820F001002168086000F0E8FA6D
:101FB00005460DE000F0E4FA401B0A2808D9606AE3
:101FC00040F400306062052084F82000012070BDDC
:101FD0002068406800F001000028EBD16062F6E75D
:101FE000606A40F4002060620120F0E770477047AB
:101FF000704770477047704770470000F8B5044657
:10200000002000908C4800684FF41651B0FBF1F7A7
:10201000A56D2E6894F85C1008208840304098B177
:102020002068006800F0040070B12068006820F0AB
:1020300004002168086094F85C1008208840A860BB
:10204000606D40F00100606594F85C1001208840EC
:10205000304068B12068406900F0800040B194F8D9
:102060005C1001208840A860606D40F0020060654F
:1020700094F85C1004208840304068B12068006803
:1020800000F0020040B194F85C1004208840A86081
:10209000606D40F00400606594F85C10102088408A
:1020A000304078B32068006800F0080050B394F81E
:1020B0005C1010208840A8602068006800F4802030
:1020C00080B12068006800F4002028B9206CC8B1F5
:1020D0002046216C884715E0A06C98B12046A16C81
:1020E00088470FE02068006800F4807028B92068F5
:1020F000006820F0080021680860206C10B12046BC
:10210000216C884794F85C102020884030400028DB
:1021100065D02068006800F0100000285FD094F8B7
:102120005C1020208840A86094F83500052828D14C
:102130002068006820F01600216808602068406967
:1021400020F0800021684861206C08B9A06C28B19B
:102150002068006820F008002168086094F85C108E
:102160003F208840A860012084F8350000BF00208F
:1021700084F8340000BF206D10B12046216D8847DF
:10218000F8BD2068006800F4802080B120680068F5
:1021900000F4002028B9606C10B12046616C8847BB
:1021A0001DE0E06BD8B12046E16B884717E020685E
:1021B000006800F4807068B92068006820F01000A2
:1021C00021680860012084F8350000BF002084F8F1
:1021D000340000BFE06B10B12046E16B8847606DB2
:1021E00038B3606D00F00100F0B1052084F83500CF
:1021F0002068006820F001002168086000BF009896
:10220000401C0090B84200D905E02068006800F04A
:1022100001000028F3D100BF012084F8350000BF81
:10222000002084F8340000BFE06C10B12046E16C5F
:10223000884700BFA4E70000900000202DE9F0418E
:102240000446002500F09CF9074614B90120BDE8BA
:10225000F081606A00B100BF022084F8350000BF41
:10226000002084F8340000BF2068006820F00100DE
:10227000216808600AE000F083F9C01B052805D931
:1022800020206065032084F83500E0E720680068BE
:1022900000F001000028EED12068056821480540C3
:1022A000D4E901010843E1680843216908436169F1
:1022B0000843A1690843E1690843216A08430543CB
:1022C000606A042803D1D4E90B0108430543206860
:1022D00005602068456925F00705606A0543606A66
:1022E00004280DD1A06A0543E06A48B12046FEF7F4
:1022F000F1FC28B140206065012084F83500A6E794
:10230000206845612046FEF7CBFC064694F85C1039
:102310003F208840B06000206065012084F83500CF
:10232000002094E73F8010F070B5044600F028F9D3
:1023300006462546681C10B104480078054400BFD5
:1023400000F01EF9801BA842FAD370BD8C0000205B
:102350007047000010B5044604480068204020B1D2
:10236000024804602046FFF7F3FF10BD143C014013
:10237000F8B502460B460025002400200021D6E0D7
:10238000012606FA01F51E6806EA0504AC4274D17E
:102390001E7906F00306012E04D01E7906F003060E
:1023A000022E13D190684F000326BE40B0434F0069
:1023B000DE68BE4030439060506801268E40B043D6
:1023C0001E79C6F300168E40304350601E7906F029
:1023D0000306032E09D0D0684F000326BE40B04349
:1023E0004F009E68BE403043D0601E7906F0030661
:1023F000022E13D1CF0802F1200656F827004E070F
:10240000F70E0F26BE40B0434F07FF0E1E69BE40B9
:102410003043CF0802F1200646F8270010684F002D
:102420000326BE40B0431E7906F003064F00BE40AF
:10243000304310605E6806F44036002E76D000BF50
:10244000002600963C4E366846F480463A4F3E6081
:102450003E46366806F48046009600BF00BF374E01
:102460008F0856F827008E07370F0F26BE40B0435F
:10247000334EB24202D1002624E057E0314EB24240
:1024800001D101261EE0304EB24201D1022619E0F0
:102490002E4EB24201D1032614E02D4EB24201D19C
:1024A00004260FE02B4EB24201D105260AE02A4E47
:1024B000B24201D1062605E0284EB24201D10726DC
:1024C00000E008268F073F0FBE4030431B4E8F08A9
:1024D00046F82700224E3068A0435E6806F4801656
:1024E00006B120431E4E3060361D3068A0435E6842
:1024F00006F4001606B12043194E361D3060184E02
:10250000361F3068A0435E6806F4003606B12043EB
:10251000134E361F3060361F3068A0435E6806F4E5
:10252000803606B120430E4E083E3060491C10290B
:10253000FFF426AFF8BD00004438024008380140DF
:10254000000002400004024000080240000C02406B
:10255000001002400014024000180240001C02401B
:10256000083C0140024613690B400BB1012000E01A
:10257000002070470AB1816101E00B04836170475C
:1025800001480068704700008400002070B50446D0
:102590000CB9012070BD94F83D0028B9002084F8E2
:1025A0003C00204600F0DAF8242084F83D00206842
:1025B000006820F00100216808602068006840F48D
:1025C0000040216808602068006820F4004021680D
:1025D000086001F0FDFA05465C496068884206D84B
:1025E0005B48854201D2012007E0002005E0594800
:1025F000854201D2012000E00020012800D1C9E776
:102600005548B5FBF0F62068406820F03F003043A5
:10261000216848604D496068884201D8701C07E015
:102620004FF4967070434FF47A71B0FBF1F0401C98
:102630002168096A21F03F01084321680862434983
:102640006068884214D8681E61684900B0FBF1F0E8
:10265000401CC0F30B00042801D204203DE0681E9A
:1026600061684900B0FBF1F0401CC0F30B0034E09E
:10267000A06838B9681E616801EB4101B0FBF1F058
:10268000401C0AE0681E616801EBC10202EB011107
:10269000B0FBF1F0401C40F48040C0F30B0008B9DF
:1026A00001201AE0A06848B9681E616801EB410189
:1026B000B0FBF1F0401CC0F30B000CE0681E616839
:1026C00001EBC10202EB0111B0FBF1F0401CC0F3C1
:1026D0000B0040F4804040F400402168C9694CF68A
:1026E000FF72914308432168C861D4E90701084398
:1026F0002168096821F0C001084321680860D4E915
:10270000031008432168896848F2FF329143084367
:1027100021688860D4E9050108432168C96821F06F
:10272000FF0108432168C8602068006840F001008C
:102730002168086000202064202084F83D000020EB
:10274000206384F83E0000BF24E70000A08601005B
:1027500080841E0000093D0040420F0010B586B085
:102760000446142101A8FDF75DFE44492068884213
:102770002FD100BF002000904148006840F02000A9
:102780003F4908600846006800F02000009000BF44
:1027900000BF03200190122002900120039003202B
:1027A00004900420059001A93648FFF7E1FD00BF21
:1027B0000020009032481030006840F4800030491A
:1027C000103108600846006800F48000009000BFE7
:1027D00051E02D49206888424DD100BF0020009073
:1027E0002748006840F00400254908600846006852
:1027F00000F00400009000BF00BF00BF0020009068
:102800000846006840F0010008600846006800F0D3
:102810000100009000BF00BF4815019012200290F7
:1028200000200390032004900420059001A917487C
:10283000FFF79EFD4FF4807001901220029000205F
:102840000390032004900420059001A91048FFF78D
:102850008FFD00BF0020009009481030006840F450
:1028600000000749103108600846006800F40000C5
:10287000009000BF00BF06B010BD0000005800402F
:102880003038024000140240005C00400008024062
:1028900000000240034800680349097808440149E0
:1028A00008607047840000208C00002010B50D489F
:1028B000006840F400700B4908600846006840F466
:1028C000806008600846006840F48070086003205B
:1028D00000F0E0F80F2000F007F800F05FF80020AB
:1028E00010BD0000003C02402DE9F04188B00446D4
:1028F0000027B84600BF002001902348006840F040
:102900002000214908600846006800F0200001907E
:1029100000BF00BF02A903A801F032F9069F1FB94A
:1029200001F056F9054602E001F052F9450017485A
:10293000B5FBF0F0A0F1010815481649086040F217
:10294000E7311448C160C0F8048000210161816052
:10295000816101F03DFE064696B90E4801F016FF72
:1029600006466EB9372000F043F8102C07D200223B
:102970002146372000F050F80748046000E00126A7
:10298000304608B0BDE8F0814038024040420F00B8
:1029900000140040F00900208800002008B500BFA6
:1029A000002000901148006840F480400F49086002
:1029B0000846006800F48040009000BF00BF00BFE0
:1029C00000200090081F006840F08050091F086038
:1029D0000846006800F08050009000BF00BF002251
:1029E0000F21901E00F018F808BD00004438024086
:1029F0000146084600280DDB00BF00BF00F01F03A2
:102A000001229A4043099B0003F1E023C3F800210F
:102A100000BF00BF00BF70472DE9F05F80460D4644
:102A20001646002706F096FC074639462A463346E6
:102A300001F00700C0F1070ABAF1040F02D94FF004
:102A4000040A01E0C0F1070AD14600F1040ABAF114
:102A5000070F02D24FF0000A01E0A0F1030AD446AA
:102A60004FF0010A0AFA09FAAAF1010A0AEA020A6F
:102A70000AFA0CFA4FF0010B0BFA0CFBABF1010B4D
:102A80000BEA030B4AEA0B042146404606F06AFCB7
:102A9000BDE8F09F00BF00F00702064B19684FF633
:102AA000FF031940044B0B4343EA0221014B196019
:102AB00000BF70470CED00E00000FA0570470246C9
:102AC0001068416200207047F0B50346154618684B
:102AD000446A21B944EA05401E68B06219E01868EA
:102AE000806A04EB1044002208E0186800F5827048
:102AF00050F8220004EB1044501CC2B2481E904211
:102B0000F3D844EA0547186800F582704E1E40F875
:102B100026700020F0BD10B50446D4F8E00404F09F
:102B20000EFE10BD70B504460D4605EBC50304F15D
:102B3000140101EB8301CA682946D4F8E00404F0CB
:102B4000F9FC70BD70B504460D4605EBC50304F5F0
:102B5000157101EB8301CA682946D4F8E00404F03A
:102B60006DFD70BD10B50446D4F8E00404F0EAFD34
:102B700010BD2DE9F04104460D4605F08000802887
:102B800008D105F00F0000EBC00104F1140000EBC8
:102B9000810607E005F00F0000EBC00104F5157099
:102BA00000EB81063146206806F010F807463846EB
:102BB000BDE8F08170B504460E4606F0800080281E
:102BC0000AD106F00F0000EBC00104F1140000EB85
:102BD00081050120687009E006F00F0000EBC001DC
:102BE00004F5157000EB81050020687006F00F00F9
:102BF000287000BF94F89404012801D1022070BD10
:102C0000012084F8940400BF2946206805F072FB77
:102C100000BF002084F8940400BF00BFEFE770B548
:102C200004460E4606F00F002179884201D90120A2
:102C300070BD06F0800080280AD106F00F0000EB7E
:102C4000C00104F1140000EB81050120687009E067
:102C500006F00F0000EBC00104F5157000EB8105D4
:102C6000002068700020A87006F00F00287000BFD8
:102C700094F89404012801D10220D9E7012084F8B6
:102C8000940400BF2946206805F032FD00BF0020F3
:102C900084F8940400BF00BFCAE7024601F00F00A9
:102CA00000EBC00302F5157000EB8300406970472C
:102CB0002DE9F04705460E4690461F464FF00009A5
:102CC00006F0800080280AD106F00F0000EBC0015A
:102CD00005F1140000EB81040120607009E006F0AA
:102CE0000F0000EBC00105F5157000EB810400201A
:102CF000607006F00F002070C4F8088027716078BB
:102D000008B120786083022F01D10020607100BFDC
:102D100095F89404012802D10220BDE8F087012033
:102D200085F8940400BF2146286805F0F7F900BF34
:102D3000002085F8940400BF4846EEE72DE9F041F5
:102D400005460E461746984606F00F0000EBC001F8
:102D500005F5157000EB8104E760C4F810800020D1
:102D60006061607006F00F002070A879012800D122
:102D7000E761AA792146286805F04EFD0020BDE8EC
:102D8000F08170B504460D4605F00F0021798842A8
:102D900001D9012070BD05F0800080280AD105F01E
:102DA0000F0000EBC00104F1140000EB81060120CC
:102DB000707007E005EBC50104F5157000EB8106A6
:102DC000002070700120B07005F00F00307000BF5F
:102DD00094F89404012801D10220DBE7012084F853
:102DE000940400BF3146206805F0C9FC05F00F00CF
:102DF00028B9A17904F29C42206805F041FC00BF8B
:102E0000002084F8940400BF00BFC3E72DE9F0411F
:102E100005460E461746984606F00F0000EBC00127
:102E200005F1140000EB8104E760C4F81080002075
:102E300060610120607006F00F002070A879012801
:102E400000D1E761AA792146286805F0E5FC002059
:102E5000BDE8F0812DE9FE4F0446D4F800B05E468F
:102E6000206805F095FF002874D1206805F0CFFF99
:102E700008B9BDE8FE8F40F608008059C0F30D2068
:102E8000C4F8D404206805F0C2FF00F00200022854
:102E900005D12068406900F002002168486120687F
:102EA00005F0B5FF00F01000102845D120688069BA
:102EB00020F0100021688861DBF8209009F00F00F5
:102EC00000EBC00104F5157000EB810AC9F3434023
:102ED00002281AD147F6F07009EA000030B3C9F3AE
:102EE0000A125846DAF80C1005F096FFC9F30A11D9
:102EF000DAF80C000844CAF80C00C9F30A11DAF831
:102F000014000844CAF8140010E0C9F3434006282E
:102F10000CD1082204F29C41584605F07DFFC9F30C
:102F20000A11DAF814000844CAF81400206880690D
:102F300040F0100021688861206805F068FF00F407
:102F40000020B0F5002F7BD10025206805F02FFF71
:102F5000029072E0E1E2029800F00100002868D0DF
:102F6000E9B2206805F046FF804608F0010048B14C
:102F7000012106F5306000EB4510816029462046AE
:102F800002F03CFE08F00800082809D1082106F5E7
:102F9000306000EB451081602946204602F0FCFDC0
:102FA00008F01000102805D1102106F5306000EB64
:102FB0004510816008F00200022824D1DBF81400DB
:102FC00000F08000802807D140F60400805940F4CA
:102FD000806140F60400815105EBC50104F51570D0
:102FE00000EB810A9AF80300012806D100208AF834
:102FF0000300E9B2204600F09BFA022106F530609A
:1030000000EB4510816008F02000202805D1202128
:1030100006F5306000EB4510816008F40050B0F513
:10302000005F06D14FF4005106F5306000EB45100B
:1030300081606D1C029840080290029800288AD195
:10304000206805F0E4FE00F48020B0F5802F7DD1EB
:10305000206805F0A2FE029000259AE0029800F098
:103060000100002873D0E9B2206805F0AAFE80466E
:1030700008F00100F0B305F00F0101208840019035
:1030800040F634008159019821EA000040F63401ED
:103090008851012106F5106000EB45108160A07990
:1030A000012824D105EBC50104F1140000EB8100D7
:1030B00005EBC502C16804F1140000EB82008068D2
:1030C000014405EBC50204F1140000EB8200C1606D
:1030D0006DB905EBC50104F1140000EB8100006936
:1030E00028B904F29C420121206805F0C9FAE9B22E
:1030F000204600E001E0FFF715FD08F00800082871
:1031000005D1082106F5106000EB4510816008F03C
:103110001000102805D1102106F5106000EB4510B5
:10312000816008F04000402805D1402106F510607C
:1031300000EB4510816008F0020002281DD12946ED
:10314000584605F0E8FD05EBC50101E025E01CE06F
:1031500004F1140000EB810A9AF80300012806D15B
:1031600000208AF80300E9B2204600F0D8F90221D5
:1031700006F5106000EB4510816008F080008028A3
:1031800003D12946204602F0DBFD6D1C0298400861
:103190000290029800287FF461AF206805F037FEA6
:1031A00000F00040B0F1004F1CD140F604008059FF
:1031B00020F0010140F60400815194F8CC0401286C
:1031C00007D1002084F8CC0400212046FFF776FCCC
:1031D00002E0204600F0D0FA2068406900F000408C
:1031E00021684861206805F012FE00F40060B0F527
:1031F000006F0ED140F60800805900F0010010B1B8
:10320000204600F011FB2068406900F4006021684E
:103210004861206805F0FBFD00F48050B0F5805F48
:103220007ED140F60400805920F0010140F60400F0
:1032300081511021206805F06EFD002732E04FF625
:103240007F3106F5106000EB4710816006F51060D5
:1032500000EB4710006820F4001106F5106000EB49
:10326000471001604FF67F3106F5306000EB4710E4
:10327000816006F5306000EB4710006820F4001113
:1032800006F5306000EB4710016006F5306000EB9A
:103290004710006840F0006106F5306000EB471011
:1032A00001607F1C2079B842C9D840F61C008059C3
:1032B00040F0011140F61C008151E07B70B1D6F85E
:1032C000840840F00B01C6F8841840F64400805989
:1032D00040F00B0140F6440081510FE040F614002D
:1032E000805942F22B01084340F614018851081F0F
:1032F000805940F00B014FF401608151D6F800086D
:1033000020F4FE60C6F80008A17904F29C4220680F
:1033100005F0B6F92068406900F48050216800E0AB
:1033200000E04861206805F072FD00F40050B0F53F
:10333000005F17D1206804F059FF206805F015FDE3
:10334000E07100F03FFC0090E2792068009905F000
:10335000E5FD204600F0F8F92068406900F40050CF
:1033600021684861206805F052FD00F00800082837
:1033700008D1204600F007FA2068406900F00800F4
:1033800021684861206805F042FD00F08000802837
:1033900018D1DBF8180020F08000CBF818000125C8
:1033A0000DE005EBC50104F5157000EB8100C07858
:1033B000012803D1E9B22046FFF7DBFB6D1C207921
:1033C000A842EED8206805F022FD00F48010B0F588
:1033D000801F2DD1012522E006F5106000EB45107D
:1033E000D0F8009005EBC50104F1140000EB81005A
:1033F0000079012812D109F00040B0F1004F0DD141
:10340000012105EBC50204F1140000EB8200C1703C
:10341000E8B240F080012046FFF7ABFB6D1C20793D
:10342000A842D9D82068406900F48010216848611A
:10343000206805F0ECFC00F40010B0F5001F44D14A
:10344000012538E006F5306000EB4510D0F800901B
:1034500005EBC50104F5157000EB8100007901282A
:1034600028D109F00040B0F1004F23D109F4803099
:1034700094F8D41401F0010188421BD1012105EB1D
:10348000C50204F5157000EB8200C170DBF818006E
:1034900040F08000CBF81800DBF8140000F080004A
:1034A00040B940F60400805940F4007140F6040031
:1034B000815103E06D1C2079A842C3D800BF206869
:1034C000406900F4001021684861206805F09FFC05
:1034D00000F08040B0F1804F08D12046FFF71BFB81
:1034E0002068406900F0804021684861206805F04C
:1034F0008EFC00F0040004280FD12068D0F804905E
:1035000009F00400042802D12046FFF72BFB2068B5
:10351000406840EA09002168486000BFA9E470B52E
:1035200004460D462946D4F8E00404F077F970BD4E
:1035300070B504460D462946D4F8E00404F092F92B
:1035400070BDF8B504460CB90120F8BD266894F8A2
:10355000950428B9002084F89404204600F0A0F8CF
:10356000032084F89504B6F1A04F01D10021A17188
:10357000206805F07DF8207C8DF8000094E80F00AD
:1035800004F048FE20B1022084F895040120DCE715
:103590000021206805F070FC20B1022084F8950419
:1035A0000120D2E7002531E0012105EBC50204F13D
:1035B000140000EB8200417005EBC50104F114001A
:1035C00000F8215005EBC50100EB81004583002187
:1035D00005EBC50204F1140000EB8200017105EB5C
:1035E000C50204F1140000EB8200816005EBC50206
:1035F00004F1140000EB8200C16005EBC50204F188
:10360000140000EB82000161681CC5B22079A84259
:10361000CADC00252AE0002105EBC50204F515707F
:1036200000EB8200417005EBC50104F5157000F850
:103630002150002105EBC50200EB8200017105EB72
:10364000C50204F5157000EB8200816005EBC50230
:1036500004F5157000EB8200C16005EBC50204F5AE
:10366000157000EB82000161681CC5B22079A84288
:10367000D1DC207C8DF8000094E80F0004F004FFFA
:1036800020B1022084F8950401205EE700206074D8
:10369000012084F89504206804F0E4FE002054E73B
:1036A00010B586B00446142101A8FCF7BBFE2068C3
:1036B000B0F1A04F42D100BF002000902048006828
:1036C00040F001001E4908600846006800F0010053
:1036D000009000BF00BF4FF4C05001900220029044
:1036E00000200390032004900A20059001A91548AA
:1036F000FEF73EFE00BF1248001D006840F080004B
:103700000F49091D086000BF002000900C481430CC
:10371000006840F480400A49143108600846006897
:1037200000F48040009000BF00BF00BF00220521D0
:103730004320FFF771F94320FFF75AF906B010BD97
:10374000303802400000024070B504460125E0799F
:1037500008B9002506E0E079022801D1012501E041
:10376000FDF722FB2946D4F8E00404F024F9D4F84C
:10377000E00404F0CBF870BD10B50446D4F8E004C2
:1037800004F0FAF810BD10B50446D4F8E00404F0D3
:10379000FEF810BD70B504460D4600BF94F89404C1
:1037A000012801D1022070BD012084F8940400BFDB
:1037B00065742946206805F093FB00BF002084F85B
:1037C000940400BF00BFEEE710B5044604F29C412C
:1037D000D4F8E00404F006F910BD70B5044625687D
:1037E00000BF94F89404012801D1022070BD01208B
:1037F00084F8940400BFE86800F0400030B1607BBA
:10380000012803D1A86B40F48030A863206805F03C
:1038100053FA206804F014FE00BF002084F89404DA
:1038200000BF00BFE2E7000010B50446D4F8E00492
:1038300004F035F92068D0F8000E40F0010021684E
:10384000C1F8000EE07A28B10348006840F0060095
:103850000149086010BD000010ED00E0F8B5044615
:1038600000250026207800F0010020B9207800F023
:10387000040004282FD100205B498866FEF780FEF3
:10388000054606E0FEF77CFE401B022801D9032016
:10389000F8BD56480068C0F3C0600028F2D16068E7
:1038A0008101207A41EA007050498431086001208A
:1038B0004D498866FEF764FE054606E0FEF760FEA9
:1038C000401B022801D90320E2E748480068C0F302
:1038D000C0600028F2D0207800F0020002287DD1DC
:1038E00000BF0020009041484030006840F0805008
:1038F0003E49403108600846006800F08050009062
:1039000000BF00BF3A48006840F480703849086042
:10391000FEF736FE054606E0FEF732FE401B0228A3
:1039200001D90320B4E73248006800F48070002811
:10393000F2D02E487030006800F440764EB3A08973
:1039400000F44070B04224D028487030006820F461
:103950004076012027490860002008602348703025
:103960000660006800F0010098B1FEF709FE054608
:1039700008E0FEF705FE401B41F28831884201D97C
:10398000032085E7194870300068C0F34000002824
:10399000EFD000BFA08900F44070B0F5407F0CD19B
:1039A00012480830006820F4F810134AE16811400A
:1039B00008430E490831086007E00C4808300068E9
:1039C00020F4F81009490831086008487030006890
:1039D000A189C1F30B010843044900E002E0703102
:1039E000086000BF002053E7000047420038024053
:1039F00000700040400E4742FFFCFF0F70B50446C8
:103A00000D460CB9012070BD5848006800F0070051
:103A1000A84209D255490D700846006800F0070019
:103A2000A84201D00120EEE7207800F00200022831
:103A30001DD1207800F00400042805D14C4800680E
:103A400040F4E0504A490860207800F00800082857
:103A500005D14748006840F4604045490860444843
:103A6000006820F0F000A168084341490860207810
:103A700000F00100A8B36068012807D13C4808386D
:103A80000068C0F34040B8B90120BCE76068022874
:103A900002D06068032807D1354808380068C0F3B1
:103AA000406048B90120AEE7314808380068C0F3EB
:103AB000400008B90120A6E72D48006820F0030067
:103AC000616808432A490860FEF75AFD064609E086
:103AD000FEF756FD801B41F28831884202D903204F
:103AE00091E707E02248006800F00C006168B0EB45
:103AF000810FEDD11D48006800F00700A84209D9E8
:103B00001A490D700846006800F00700A84201D06D
:103B1000012078E7207800F00400042807D1144839
:103B2000006820F4E050E1680843114908602078FB
:103B300000F00800082808D10D48006820F4604013
:103B4000216940EAC1000A49086000F061F80849AB
:103B50000968C1F30311074A515CC840064908606F
:103B600006480068FEF7C0FE00204CE7003C02401B
:103B700008380240E8C300089000002088000020B8
:103B80000F2202600D4A126802F0030242600B4AE3
:103B9000126802F0F0028260084A126802F4E052F1
:103BA000C260064A126802F46042D2080261044A06
:103BB000126802F007020A607047000008380240ED
:103BC000003C02400148006870470000900000205F
:103BD00000B5FFF7F7FF04490968C1F38221034AE2
:103BE000515CC84000BD000008380240F8C300081E
:103BF00000B5FFF7E7FF04490968C1F34231034A02
:103C0000515CC84000BD000008380240F8C30008FD
:103C10002DE9F047002400250026A146254800682C
:103C200000F00C0020B1042805D008283AD105E0A6
:103C3000DFF8849039E0DFF8849036E01D48001FFB
:103C4000006800F03F041B48001F006800F480007B
:103C500078B11A481749091F0968C1F38811A0FBF8
:103C600001700146224600233846FCF791FB0546C9
:103C70000EE011480F49091F0968C1F38811A0FB24
:103C800001700146224600233846FCF781FB0546B9
:103C90000848001F0068C0F30140401C4600B5FB07
:103CA000F6F902E0DFF8109000BF00BF4846BDE81B
:103CB000F0870000083802400024F400001BB70021
:103CC000F8B504460CB90120F8BD207800F00100D9
:103CD000002874D0F948006800F00C0004280DD0CA
:103CE000F648006800F00C00082813D1F348001FC4
:103CF000006800F48000B0F5800F0BD1EF48083861
:103D00000068C0F34040002859D06068002856D1B0
:103D10000120D9E700BF6068B0F5803F08D1E748CF
:103D20000838006840F48030E449083908601EE033
:103D30006068B0F5A02F0DD1E0480838006840F465
:103D40008020DE49083908600846006840F4803069
:103D500008600CE0D9480838006820F48030D74962
:103D6000083908600846006820F48020086000BF19
:103D7000606890B1FEF704FC054606E0FEF700FC23
:103D8000401B642801D903209EE7CC48083800680E
:103D9000C0F340400028F1D011E0FEF7F1FB0546EA
:103DA00006E0FEF7EDFB401B642801D903208BE7FA
:103DB000C24808380068C0F340400028F1D120789C
:103DC00000F0020002285FD1BC48006800F00C003F
:103DD00058B1BA48006800F00C0008281CD1B74858
:103DE000001F006800F48000B0B9B44808380068CB
:103DF000C0F3400020B1E068012801D0012063E752
:103E0000AE480838006820F0F800216940EAC10097
:103E1000AA490839086037E0E06800B30120A849E2
:103E20000860FEF7ADFB054606E0FEF7A9FB401B68
:103E3000022801D9032047E7A04808380068C0F3EA
:103E400040000028F1D09D480838006820F0F800B4
:103E5000216940EAC10099490839086014E000204E
:103E600097490860FEF78CFB054606E0FEF788FBE5
:103E7000401B022801D9032026E790480838006833
:103E8000C0F340000028F1D1207800F00800082895
:103E90002CD16069A8B101208A490860FEF770FB47
:103EA000054606E0FEF76CFB401B022801D9032003
:103EB0000AE782486C300068C0F340000028F1D067
:103EC00014E000207F490860FEF75AFB054606E033
:103ED000FEF756FB401B022801D90320F4E6774881
:103EE0006C300068C0F340000028F1D1207800F069
:103EF0000400042870D1002770483830006800F0B2
:103F0000805090B900BF002000906C4838300068A5
:103F100040F080506949383108600846006800F078
:103F20008050009000BF00BF01276748006800F480
:103F30008070B0B96448006840F4807062490860DD
:103F4000FEF71EFB054606E0FEF71AFB401B0228A3
:103F500001D90320B8E65C48006800F480700028AE
:103F6000F2D000BFA068012808D15448683000682A
:103F700040F001005149683108601DE0A068052843
:103F80000DD14E486830006840F004004B4968315C
:103F900008600846006840F0010008600CE04748EF
:103FA0006830006820F00100444968310860084624
:103FB000006820F00400086000BFA068A8B1FEF708
:103FC000DFFA054609E0FEF7DBFA401B41F28831D3
:103FD000884202D9032077E626E038486830006836
:103FE000C0F340000028EED013E0FEF7C9FA054602
:103FF00008E0FEF7C5FA401B41F28831884201D93A
:10400000032061E62D4868300068C0F340000028B6
:10401000EFD1012F07D129483830006820F08050B7
:1040200026493831086000BFA069002845D02348E0
:10403000006800F00C0008285DD0A069022845D176
:1040400000201F490866FEF79BFA054606E0FEF7CA
:1040500097FA401B022801D9032035E61748083893
:104060000068C0F340600028F1D1D4E9070108439B
:10407000616A40EA81110122A06AC2EB500041EA64
:1040800000412C20005D41EA00600C49091F0860D6
:1040900001200B490866FEF773FA054606E0FEF7B5
:1040A0006FFA401B022801D903200DE603480838A7
:1040B0000068C0F340600028F1D049E008380240B1
:1040C00000004742800E4742007000400020214916
:1040D0000866FEF755FA054606E0FEF751FA401B62
:1040E000022801D90320EFE51B480068C0F34060B7
:1040F0000028F2D12CE0A069012800D1E4E516489F
:10410000001D0668A069012820D006F48001E0693E
:1041100081421BD106F03F01206A814216D147F649
:10412000C0703040616AB0EB811F0FD106F440319E
:104130000122A06AC2EB5000B1EB004F06D106F09D
:1041400070612C20005DB1EB006F01D00120BBE558
:104150000020B9E5000047420038024070B504462F
:1041600001250CB9012070BD607F20B900202077A7
:10417000204600F04DF8022060772068C068C0F348
:10418000001000283CD100BFCA202168486253209B
:104190002168486200BF204601F033FE0546EDB9B4
:1041A0002068806819490840216888602169606832
:1041B0000843616908432168896808432168886069
:1041C0002168E068086120680169208941EA0040AF
:1041D00021680861204601F039FE05465DB9206876
:1041E000006C20F48020216808642068006CA169BC
:1041F00008432168086400BFFF202168486200E08E
:1042000000250DB9012060772846ACE7BFFF8FFF7E
:104210001FB50446002000900190029003900949C8
:10422000206888420CD1022000900002039068466A
:10423000FFF714FB08B1FCF7B7FD01200249086045
:104240001FBD0000002800403C0E474270B50446E8
:1042500000250B482168C860FEF792F9054607E083
:10426000FEF78EF9401BB0F57A7F01D9032070BDAF
:104270002068C06800F020000028F1D00020F6E798
:104280005F7F010010B504460CB9012010BD606AC3
:1042900038B96068B0F5827F00D105E00021E161A6
:1042A00002E00021216161610021A16294F85100C6
:1042B00028B9002084F85000204600F047F802207A
:1042C00084F851002068006820F0400021680860F0
:1042D000A08800F48270218901F404410843A18977
:1042E00001F400610843217C01F002010843217DB3
:1042F00001F001010843218B01F400710843217F83
:1043000001F0380108432021095D01F080010843D4
:10431000218D01F400510843216808600421A0693F
:1043200001EA104094F8241001F0100108432168BC
:1043300048602068C06920F400602168C8610020DE
:104340006065012084F8510000209FE710B586B019
:104350000446142101A8FCF765F8674920688842E3
:104360007ED100BF002000906448006840F4805077
:10437000624908600846006800F48050009000BF61
:1043800000BF00BF002000905C481438006840F077
:1043900002005A49143908600846006800F002001B
:1043A000009000BF00BF00BF0020009008460068DA
:1043B00040F0010008600846006800F0010000902D
:1043C00000BF00BF1820019002200290012003903E
:1043D000032004900520059001A94948FDF7C8FF76
:1043E000802001900220029001200390032004907D
:1043F0000520059001A94348FDF7BAFF424843490B
:1044000008604FF0C0604860002140488160C16092
:104410004FF480610161002141618161C1614FF40C
:104420004031016200214162FDF708FF08B1FCF74D
:10443000BBFC00BF3548E064846300BF32481830DD
:10444000334908604FF0C0604860402130488160C7
:104450000021C1604FF4806101610021416100E0F1
:1044600010E08161C1614FF40031016200214162BD
:10447000FDF7E4FE08B1FCF797FC00BF2448A064F8
:10448000846336E023492068884232D100BF00208F
:1044900000901A48001F006840F480401749091F27
:1044A00008600846006800F48040009000BF00BF2C
:1044B00000BF0020009011481438006840F002004E
:1044C0000E49143908600846006800F002000090A8
:1044D00000BF00BF4FF46040019002200290012015
:1044E0000390032004900520059001A90448FDF7DE
:1044F0003FFF06B010BD00000030014044380240CC
:1045000000040240000002404064024060060020B7
:10451000C0060020003800407047704730B50246A2
:104520000B4600BF92F83C00012801D1022030BDAB
:10453000012082F83C0000BF022082F83D00106894
:1045400044681068816824F0700418680443106897
:104550004460184D1068A8421BD01068B0F1804F1D
:1045600017D0154D1068A84213D0144D1068A842FA
:104570000FD0134D1068A8420BD0124D1068A842FE
:1045800007D0114D1068A84203D0104D1068A84202
:1045900005D121F080015868014310688160012035
:1045A00082F83D0000BF002082F83C0000BF00BF41
:1045B000BDE700000000014000040040000800408A
:1045C000000C004000040140004001400018004081
:1045D00010B504460CB9012010BD94F83D0028B96F
:1045E000002084F83C00204600F026F8022084F8E1
:1045F0003D00211D206801F0A1FD012084F8460046
:1046000000BF84F83E0001213F20015540200155A4
:104610004120015500BF00BF012084F84200432023
:104620000155442001554520015500BF012084F863
:104630003D000020D0E7000008B50168B1F1804FCF
:104640000FD100BF002100912549096841F0010107
:10465000234A11601146096801F00101009100BF71
:104660003DE0204A016891420FD100BF0021009136
:104670001B49096841F00401194A11601146096893
:1046800001F00401009100BF29E0174A016891423E
:104690000FD100BF002100911149096841F00801C4
:1046A0000F4A11601146096801F00801009100BF2E
:1046B00015E00E4A0168914211D100BF002100911E
:1046C0000749091D096841F40031054A121D1160AE
:1046D0001146096801F40031009100BF00BF08BD18
:1046E0004038024000080040000C004000440140F7
:1046F000014691F83D00012801D0012070470220B9
:1047000081F83D001A4B086898421BD00868B0F148
:10471000804F17D0174B0868984213D0164B086883
:1047200098420FD0154B086898420BD0144B08687C
:10473000984207D0134B0868984203D0124B086880
:1047400098420CD10868806800F00702062A0CD055
:104750000868006840F001000B68186005E0086810
:10476000006840F001000B6818600020C6E70000F8
:10477000000001400004004000080040000C004020
:10478000000401400040014000180040014691F83B
:104790003D00012801D001207047022081F83D0032
:1047A0000868C06840F001000B68D8601A4B0868C0
:1047B00098421BD00868B0F1804F17D0174B08689B
:1047C000984213D0164B086898420FD0154B0868D2
:1047D00098420BD0144B0868984207D0134B0868D6
:1047E000984203D0124B086898420CD10868806840
:1047F00000F00702062A0CD00868006840F00100AB
:104800000B68186005E00868006840F001000B685C
:1048100018600020C0E700000000014000040040D4
:1048200000080040000C004000040140004001402E
:10483000001800402DE9F04104460D46002700BF56
:1048400094F83C00012802D10220BDE8F08101204B
:1048500084F83C0000BF022084F83D002068866890
:1048600026F0770626F47F46206886602868502860
:1048700033D00CDC202850D004DC00284BD010288A
:1048800051D149E0302849D040284CD139E0602846
:104890002DD0702807D0B0F5805F03D0B0F5005F51
:1048A00041D10DE041E0D5E902136A68206801F0CA
:1048B000CAFC2068866846F077062068866034E087
:1048C000D5E902136A68206801F0BDFC20688068A1
:1048D00040F480402168886027E0EA6869682068C1
:1048E00001F0A2FD5021206801F0B8FC1DE0EA684B
:1048F0006968206801F0ABFD6021206801F0AEFC22
:1049000013E0EA686968206801F08EFD40212068A4
:1049100001F0A4FC09E000BF00BF00BF29682068C7
:1049200001F09CFC01E0012700BF00BF012084F8DA
:104930003D0000BF002084F83C0000BF384684E7FB
:10494000704770B504462068C5682068066906F09F
:104950000200022819D105F00200022815D1401FDB
:1049600021680861012020772068806900F0030039
:1049700018B12046FFF7E4FF05E0204600F018F9E3
:10498000204600F0CCF90020207706F0040004282F
:1049900019D105F00400042815D1C043216808612D
:1049A000022020772068806900F4407018B120460A
:1049B000FFF7C6FF05E0204600F0FAF8204600F0B9
:1049C000AEF90020207706F00800082819D105F07C
:1049D0000800082815D1C043216808610420207709
:1049E0002068C06900F0030018B12046FFF7A8FF57
:1049F00005E0204600F0DCF8204600F090F90020A9
:104A0000207706F01000102819D105F010001028AA
:104A100015D1C04321680861082020772068C0694B
:104A200000F4407018B12046FFF78AFF05E02046E9
:104A300000F0BEF8204600F072F90020207706F062
:104A4000010048B105F0010030B16FF001002168AC
:104A50000861204600F0EAF906F08000802809D1BC
:104A600005F08000802805D1C043216808612046F8
:104A7000FFF752FD06F04000402809D105F0400044
:104A8000402805D1C04321680861204600F0DAF9CA
:104A900006F02000202809D105F02000202805D1AB
:104AA000C043216808612046FFF737FD70BD000054
:104AB00010B586B00446142101A8FBF7B3FC3549B4
:104AC000206888421FD100BF002000903248006853
:104AD00040F00800304908600846006800F008000F
:104AE000009000BF00BF4FF4804001900220029070
:104AF00001200390032004900220059001A927487B
:104B0000FDF736FC44E02649206888421ED100BFEC
:104B1000002000902048006840F080001E49086096
:104B20000846006800F08000009000BF00BF4FF40E
:104B3000E050019002200290012003900220049096
:104B4000059001A91748FDF713FC21E016492068DC
:104B500088421DD100BF002000900F48006840F03F
:104B600020000D4908600846006800F02000009011
:104B700000BF00BF4020019002200290012003905E
:104B8000022004900320059001A90848FDF7F0FBDE
:104B900006B010BD0008004030380240000C024052
:104BA000000C0040001C0240004401400014024080
:104BB00070472DE9F04104460D461646002700BF18
:104BC00094F83C00012802D10220BDE8F0810120C8
:104BD00084F83C0000BF36B1042E1BD0082E31D023
:104BE0000C2E5ED145E02946206801F041FB20688B
:104BF000806940F00800216888612068806920F0A1
:104C00000400216888612068806929690843216857
:104C1000886148E02946206801F062FB20688069CD
:104C200040F40060216888612068806920F4806019
:104C30002168886120688069296940EA012021682B
:104C4000886130E02946206801F088FB2068C0694F
:104C500040F008002168C8612068C06920F00400A5
:104C60002168C8612068C069296908432168C86152
:104C700019E02946206801F0ADFB2068C06940F4C6
:104C800000602168C8612068C06920F480602168E4
:104C9000C8612068C069296940EA01202168C861AB
:104CA00001E0012700BF00BF00BF002084F83C00E6
:104CB00000BF384689E710B504460CB9012010BD85
:104CC00094F83D0028B9002084F83C00204600F00C
:104CD00025F8022084F83D00211D206801F02EFAFD
:104CE000012084F8460000BF84F83E0001213F20E7
:104CF0000155402001554120015500BF00BF012052
:104D000084F84200432001554420015545200155B7
:104D100000BF012084F83D000020D0E770477047B5
:104D200070B504460D4615B994F83E000BE0042D0D
:104D300002D13F20005D06E0082D02D14020005D39
:104D400001E04120005D012801D0012070BD1DB9A6
:104D5000022084F83E000EE0042D03D102213F2002
:104D6000015508E0082D03D102214020015502E041
:104D700002214120015501222946206801F052FA02
:104D800023492068884203D022492068884201D103
:104D9000012000E0002028B12068406C40F4004071
:104DA000216848641A49206888421BD02068B0F105
:104DB000804F17D018492068884213D017492068BF
:104DC00088420FD01649206888420BD011492068CC
:104DD000884207D013492068884203D012492068CE
:104DE00088420CD12068806800F00706062E0CD09F
:104DF0002068006840F001002168086005E0206834
:104E0000006840F001002168086000209EE7000073
:104E10000000014000040140000400400008004080
:104E2000000C0040004001400018004010B504464E
:104E300003492068884201D1FDF72CFD10BD000018
:104E400000140040704710B504460CB9012010BD95
:104E5000A06900B100E000BF94F8410028B900202B
:104E600084F84000204600F029F8242084F841000E
:104E70002068C06820F400502168C860204601F016
:104E800037FB2068006920F49040216808612068A1
:104E9000406920F02A00216848612068C06840F419
:104EA00000502168C86000206064202084F8410020
:104EB00084F842000020606300BFC8E710B586B0E8
:104EC0000446142101A8FBF7ADFA7C49206888420A
:104ED0007ED100BF002000907948006840F01000AB
:104EE000774908600846006800F01000009000BF95
:104EF00000BF00BF0020009071481438006840F0E7
:104F000002006F49143908600846006800F002008A
:104F1000009000BF00BF00BF00200090084600685E
:104F200040F0010008600846006800F001000090B1
:104F300000BF00BF8020019002200290002003905B
:104F4000032004900720059001A95E48FDF710FAA0
:104F50004FF4007001900220029000200390032083
:104F600004900720059001A95748FDF701FA57481A
:104F7000574908604FF00060486000215448816044
:104F8000C1604FF480610161002141618161C161B3
:104F900001624162FDF752F908B1FBF705FF00BF5E
:104FA0004B48E063846300BF48483030494908609B
:104FB0004FF0006048604021464881600021C16098
:104FC0004FF480610161002141618161C16100E0B4
:104FD00014E001624162FDF731F908B1FBF7E4FE2C
:104FE00000BF3C48A063846300BF00220521252048
:104FF000FDF712FD2520FDF7FBFC5CE0364920683B
:10500000884258D100BF002000902D48006840F031
:1050100020002B4908600846006800F0200000903E
:1050200000BF00BF00BF0020009025481438006872
:1050300040F040002249143908600846006800F03A
:105040004000009000BF00BF4FF484400190022058
:10505000029000200390032004900820059001A9ED
:105060001E48FDF785F9194860381D49086080051C
:10507000486000211A488160C1604FF4806101617D
:10508000002141618161C1614FF440310162002121
:105090004162FDF7D3F808B1FBF786FE00BF104868
:1050A000E063846300BF002205214720FDF7B4FCC4
:1050B0004720FDF79DFC06B010BD00000010014028
:1050C000443802400004024000000240886402406C
:1050D000D0080020300900200014014000180240D0
:1050E0009009002070B504460D46164694F842001B
:1050F00020280BD105B10EB9012070BD002020631E
:1051000032462946204601F009FBF6E70220F4E783
:105110002DE9F84F04460E46174699464FF0000A0F
:1051200094F84100202850D106B117B90120BDE8FC
:10513000F88F00206064212084F84100FDF720FAF8
:105140008246A784E784A068B0F5805F04D1206917
:1051500010B90025B04602E035464FF000081EE0C9
:105160005346002280212046CDF8009001F0F6FA47
:1051700020B1202084F841000320D8E745B9B8F8D1
:105180000000C0F308002168486008F1020803E04D
:105190002878216848606D1CE08C401EE084E08C1B
:1051A0000028DDD15346002240212046CDF8009052
:1051B00001F0D4FA20B1202084F841000320B6E7A2
:1051C000202084F841000020B1E70220AFE700BFB3
:1051D000FEE730B50B46002100BF16E00A24B4EB11
:1051E000107F05D9302404EB107403F8114005E05A
:1051F000412404EB10740A3C03F81140000100251F
:105200004C00641C1D554C1CE1B29142E6DB30BDE4
:105210001FB5002000900190029003901748184994
:1052200008604FF40030486000211548816001613A
:10523000017680F820104FF08051C1624FF070610C
:1052400081620021C1600121C161002180F830101C
:1052500001214161FCF72AF808B1FBF7A5FD1020F8
:105260000090012001900020029069460448FBF75D
:1052700057FF08B1FBF798FD1FBD0000002001405B
:10528000080400201FB500200090019002900390B8
:105290001548164908604FF4003048600021134853
:1052A00081600161017680F82010C162104981623D
:1052B0000021C1600121C161002180F8301001216D
:1052C0004161FBF7F3FF08B1FBF76EFD082000908A
:1052D000012001900020029069460448FBF720FF5E
:1052E00008B1FBF761FD1FBD002201405004002002
:1052F0000100000F10B50E480E49086003204860F9
:1053000000210C488160C1604FF4102101614FF40D
:10531000001141610021017641768176C1760177E5
:105320004177FCF78BFB08B1FBF73EFD10BD000099
:10533000006400409804002010B50E480E49086033
:105340000320486000210C488160C1604FF41021A7
:1053500001614FF4001141610021017641768176AF
:10536000C17601774177FCF769FB08B1FBF71CFDBB
:1053700010BD000000680040C004002008B500BF58
:10538000002000902648006840F40010244908607E
:105390000846006800F40010009000BF00BF00BF86
:1053A000002000900846006840F48000086008462D
:1053B000006800F48000009000BF00BF00220521BB
:1053C0000C20FDF729FB0C20FDF712FB0022052124
:1053D0003920FDF721FB3920FDF70AFB00220521CA
:1053E0003A20FDF719FB3A20FDF702FB00220521C8
:1053F0003B20FDF711FB3B20FDF7FAFA00220521C7
:105400004420FDF709FB4420FDF7F2FA00220521B4
:105410004620FDF701FB4620FDF7EAFA08BD000033
:105420003038024000B5A3B01C221E491CA8FAF770
:10543000E0FF00211CA805F0BAFE1B4908601C22F1
:1054400018491C3115A8FAF7D4FF002115A805F05A
:10545000AEFE164908601C22124938310EA8FAF730
:10546000C8FF00210EA805F0A2FE114908601C2209
:105470000C49543107A8FAF7BCFF002107A805F032
:1054800096FE0C4908601C22064970316846FAF7FE
:10549000B0FF0021684605F08AFE0749086023B086
:1054A00000BD000054C300081800002004000020C4
:1054B00008000020140000201000002000B587B074
:1054C000142102A8FAF7AEFF00BF0020019099480E
:1054D000006840F00200974908600846006800F044
:1054E0000200019000BF00BF00BF002001900846ED
:1054F000006840F0400008600846006800F0400086
:10550000019000BF00BF00BF002001900846006866
:1055100040F0010008600846006800F001000190BA
:1055200000BF00BF00BF002001900846006840F0A7
:10553000080008600846006800F00800019000BFFD
:1055400000BF00BF002001900846006840F0040042
:1055500008600846006800F00400019000BF00BF2A
:1055600000BF002001900846006840F48070086089
:105570000846006800F48070019000BF00BF00BFC3
:10558000002001900846006840F0200008600846AE
:10559000006800F02000019000BF00BF00BF0020A5
:1055A00001900846006840F08000086008460068E6
:1055B00000F08000019000BF00BF00BF00200190FC
:1055C0000846006840F0100008600846006800F0D7
:1055D0001000019000BF00BF012240215648FCF797
:1055E000C9FF012210215548FCF7C4FF01221146D2
:1055F0005348FCF7BFFF4FF4006002904FF488104F
:1056000003900020049002A94E48FCF7B1FE8020D0
:10561000029000200390049002A94B48FCF7A8FEDA
:1056200040200290002003900120049002A94648E7
:10563000FCF79EFE40200290002003900120049081
:1056400002A94048FCF794FE4020029001200390FC
:105650000490059002A93848FCF78AFE09200290C0
:105660004FF4881003900120049002A93248FCF7FF
:105670007FFE0720029000200390049002A9314889
:10568000FCF776FE10200290012003900490022087
:10569000059002A92948FCF76BFE302002904FF4D8
:1056A000041003900120049002A92648FCF760FE34
:1056B0004FF4D0400290002003900120049002A9F2
:1056C0002248FCF755FE4FF48050029000200390D2
:1056D0000120049002A91A48FCF74AFE012002901A
:1056E000039004900220059002A91548FCF740FEA3
:1056F000002206210846FDF78FF90620FDF778F90C
:10570000002205210920FDF787F90920FDF770F92E
:10571000002205210A20FDF77FF90A20FDF768F92C
:10572000002205211720FDF777F91720FDF760F912
:1057300007B000BD303802400018024000000240AF
:105740000004024000080240002002400010024015
:1057500010B50B480B4908600B4848600021094808
:105760008160C1604FF4804101610021416181612C
:10577000C1610162FCF70AFF08B1FBF715FB10BD20
:1057800000580040E8040020801A060010B50B48BD
:105790000B4908600B484860002109488160C160DE
:1057A0004FF480410161002141618161C161016269
:1057B000FCF7ECFE08B1FBF7F7FA10BD005C004007
:1057C0003C050020801A060010B50A480A49086006
:1057D000002048607C2108488160FF21C1600021D1
:1057E000016141618161FEF7B9FC08B1FBF7DCFAA8
:1057F00010BD0000002800409005002010B50F48A3
:105800000F4908604FF48270486000210C488160A5
:10581000C160022101610121416149028161382198
:10582000C16100210162416281620A21C162FEF709
:1058300029FD08B1FBF7B8FA10BD000000300140A7
:10584000B005002010B50D480D49086000204860E3
:1058500000210B488160C160022101610121416189
:105860004902816100210162416281620A21C162B3
:10587000FEF708FD08B1FBF797FA10BD00380040AD
:105880000806002000B587B01C216846FAF7CAFD5B
:1058900015481649086000204860002113488160BF
:1058A00041F28731C160002101618161FEF790FE04
:1058B00008B1FBF779FA0D48FFF7FDF908B1FBF7DE
:1058C00073FA602000900020019002900490002262
:1058D00069460648FFF76DF908B1FBF765FA03481A
:1058E000FFF7E6F807B000BD00440140F8070020CC
:1058F00000B587B0002003900490059006900190B9
:1059000002904FF080401449086053204860002105
:10591000114881604FF6FF71C16000210161816112
:10592000FEF756FE08B1FBF73FFA4FF480500390A4
:1059300003A90948FEF77EFF08B1FBF735FA0020FE
:105940000190029001A90448FEF7E8FD08B1FBF7B9
:105950002BFA07B000BD00002007002000B58DB075
:10596000002009900A900B900C90079008901C2141
:105970006846FAF757FD2048204908600020486033
:1059800000211E48816045F20721C16000210161AC
:105990008161FEF71DFE08B1FBF706FA4FF4805057
:1059A000099009A91548FEF745FF08B1FBF7FCF976
:1059B0001248FFF780F908B1FBF7F6F900200790CD
:1059C000089007A90D48FEF7A9FD08B1FBF7ECF90F
:1059D0006020009000200190029004900822694607
:1059E0000648FFF7E6F808B1FBF7DEF90348FFF7D2
:1059F0005FF80DB000BD00000008004068070020FF
:105A000000B58DB0002009900A900B900C90079083
:105A100008901C216846FAF705FD284828490860C7
:105A2000002048600021264881604FF6FF71C16068
:105A3000002101618161FEF7CBFD08B1FBF7B4F9EC
:105A40004FF48050099009A91D48FEF7F3FE08B1F4
:105A5000FBF7AAF91A48FFF72EF908B1FBF7A4F9EA
:105A600000200790089007A91548FEF757FD08B1D8
:105A7000FBF79AF9602000900020019002900490BA
:105A8000002269460E48FFF794F808B1FBF78CF93D
:105A9000042269460A48FFF78CF808B1FBF784F93D
:105AA000082269460648FFF784F808B1FBF77CF93D
:105AB0000348FEF7FDFF0DB000BD0000000C0040E4
:105AC000B007002010B50B480B4908604FF4E130D7
:105AD0004860002108488160C16001610C2141617A
